{
  "_format": "hh-sol-artifact-1",
  "contractName": "ClaimManager",
  "sourceName": "contracts/ClaimManager.sol",
  "abi": [
    {
      "inputs": [
        {
          "internalType": "address",
          "name": "_claimUtils",
          "type": "address"
        },
        {
          "internalType": "address",
          "name": "_arbitrator",
          "type": "address"
        },
        {
          "internalType": "address",
          "name": "_insurer",
          "type": "address"
        },
        {
          "internalType": "uint256",
          "name": "_counterOfferPeriod",
          "type": "uint256"
        },
        {
          "internalType": "uint256",
          "name": "_challengePeriod",
          "type": "uint256"
        },
        {
          "internalType": "string",
          "name": "_metaEvidence",
          "type": "string"
        },
        {
          "internalType": "bytes",
          "name": "_arbitratorExtraData",
          "type": "bytes"
        }
      ],
      "stateMutability": "nonpayable",
      "type": "constructor"
    },
    {
      "anonymous": false,
      "inputs": [
        {
          "indexed": false,
          "internalType": "uint256",
          "name": "_claimId",
          "type": "uint256"
        },
        {
          "indexed": false,
          "internalType": "uint256",
          "name": "_claimedAmount",
          "type": "uint256"
        },
        {
          "indexed": false,
          "internalType": "bytes32",
          "name": "_policyHash",
          "type": "bytes32"
        }
      ],
      "name": "ClaimCreated",
      "type": "event"
    },
    {
      "anonymous": false,
      "inputs": [
        {
          "indexed": false,
          "internalType": "uint256",
          "name": "_claimId",
          "type": "uint256"
        },
        {
          "indexed": false,
          "internalType": "uint256",
          "name": "_settlement",
          "type": "uint256"
        }
      ],
      "name": "ClaimResolved",
      "type": "event"
    },
    {
      "anonymous": false,
      "inputs": [
        {
          "indexed": false,
          "internalType": "uint256",
          "name": "_claimId",
          "type": "uint256"
        },
        {
          "indexed": false,
          "internalType": "uint256",
          "name": "_counterOfferAmount",
          "type": "uint256"
        }
      ],
      "name": "CounterOffer",
      "type": "event"
    },
    {
      "anonymous": false,
      "inputs": [
        {
          "indexed": true,
          "internalType": "bytes32",
          "name": "policyHash",
          "type": "bytes32"
        },
        {
          "indexed": false,
          "internalType": "address",
          "name": "claimant",
          "type": "address"
        },
        {
          "indexed": false,
          "internalType": "address",
          "name": "beneficiary",
          "type": "address"
        },
        {
          "indexed": false,
          "internalType": "uint256",
          "name": "coverage",
          "type": "uint256"
        },
        {
          "indexed": false,
          "internalType": "uint256",
          "name": "endTime",
          "type": "uint256"
        },
        {
          "indexed": false,
          "internalType": "string",
          "name": "documentIpfsCidV1",
          "type": "string"
        }
      ],
      "name": "CreatedPolicy",
      "type": "event"
    },
    {
      "anonymous": false,
      "inputs": [
        {
          "indexed": true,
          "internalType": "contract IArbitrator",
          "name": "_arbitrator",
          "type": "address"
        },
        {
          "indexed": true,
          "internalType": "uint256",
          "name": "_disputeID",
          "type": "uint256"
        },
        {
          "indexed": false,
          "internalType": "uint256",
          "name": "_metaEvidenceID",
          "type": "uint256"
        },
        {
          "indexed": false,
          "internalType": "uint256",
          "name": "_evidenceGroupID",
          "type": "uint256"
        }
      ],
      "name": "Dispute",
      "type": "event"
    },
    {
      "anonymous": false,
      "inputs": [
        {
          "indexed": true,
          "internalType": "contract IArbitrator",
          "name": "_arbitrator",
          "type": "address"
        },
        {
          "indexed": true,
          "internalType": "uint256",
          "name": "_evidenceGroupID",
          "type": "uint256"
        },
        {
          "indexed": true,
          "internalType": "address",
          "name": "_party",
          "type": "address"
        },
        {
          "indexed": false,
          "internalType": "string",
          "name": "_evidence",
          "type": "string"
        }
      ],
      "name": "Evidence",
      "type": "event"
    },
    {
      "anonymous": false,
      "inputs": [
        {
          "indexed": true,
          "internalType": "uint256",
          "name": "_metaEvidenceID",
          "type": "uint256"
        },
        {
          "indexed": false,
          "internalType": "string",
          "name": "_evidence",
          "type": "string"
        }
      ],
      "name": "MetaEvidence",
      "type": "event"
    },
    {
      "anonymous": false,
      "inputs": [
        {
          "indexed": true,
          "internalType": "contract IArbitrator",
          "name": "_arbitrator",
          "type": "address"
        },
        {
          "indexed": true,
          "internalType": "uint256",
          "name": "_disputeID",
          "type": "uint256"
        },
        {
          "indexed": false,
          "internalType": "uint256",
          "name": "_ruling",
          "type": "uint256"
        }
      ],
      "name": "Ruling",
      "type": "event"
    },
    {
      "inputs": [
        {
          "internalType": "uint256",
          "name": "_claimId",
          "type": "uint256"
        }
      ],
      "name": "acceptClaim",
      "outputs": [],
      "stateMutability": "nonpayable",
      "type": "function"
    },
    {
      "inputs": [
        {
          "internalType": "uint256",
          "name": "_claimId",
          "type": "uint256"
        }
      ],
      "name": "acceptCounterOffer",
      "outputs": [],
      "stateMutability": "nonpayable",
      "type": "function"
    },
    {
      "inputs": [
        {
          "internalType": "uint256",
          "name": "_claimId",
          "type": "uint256"
        }
      ],
      "name": "advanceToCounterOffer",
      "outputs": [],
      "stateMutability": "nonpayable",
      "type": "function"
    },
    {
      "inputs": [
        {
          "internalType": "uint256",
          "name": "_claimId",
          "type": "uint256"
        }
      ],
      "name": "appeal",
      "outputs": [],
      "stateMutability": "payable",
      "type": "function"
    },
    {
      "inputs": [],
      "name": "arbitrator",
      "outputs": [
        {
          "internalType": "contract IArbitrator",
          "name": "",
          "type": "address"
        }
      ],
      "stateMutability": "view",
      "type": "function"
    },
    {
      "inputs": [],
      "name": "arbitratorExtraData",
      "outputs": [
        {
          "internalType": "bytes",
          "name": "",
          "type": "bytes"
        }
      ],
      "stateMutability": "view",
      "type": "function"
    },
    {
      "inputs": [
        {
          "internalType": "uint256",
          "name": "_claimId",
          "type": "uint256"
        },
        {
          "internalType": "string",
          "name": "_evidence",
          "type": "string"
        }
      ],
      "name": "challengeCounterOffer",
      "outputs": [],
      "stateMutability": "payable",
      "type": "function"
    },
    {
      "inputs": [],
      "name": "challengePeriod",
      "outputs": [
        {
          "internalType": "uint256",
          "name": "",
          "type": "uint256"
        }
      ],
      "stateMutability": "view",
      "type": "function"
    },
    {
      "inputs": [
        {
          "internalType": "address",
          "name": "_insurer",
          "type": "address"
        }
      ],
      "name": "changeInsurer",
      "outputs": [],
      "stateMutability": "nonpayable",
      "type": "function"
    },
    {
      "inputs": [],
      "name": "claimCount",
      "outputs": [
        {
          "internalType": "uint256",
          "name": "",
          "type": "uint256"
        }
      ],
      "stateMutability": "view",
      "type": "function"
    },
    {
      "inputs": [
        {
          "internalType": "address",
          "name": "_beneficiary",
          "type": "address"
        },
        {
          "internalType": "uint256",
          "name": "_coverage",
          "type": "uint256"
        },
        {
          "internalType": "uint256",
          "name": "_endTime",
          "type": "uint256"
        },
        {
          "internalType": "string",
          "name": "_documentIpfsCidV1",
          "type": "string"
        },
        {
          "internalType": "uint256",
          "name": "_claimedAmount",
          "type": "uint256"
        },
        {
          "internalType": "string",
          "name": "_evidence",
          "type": "string"
        }
      ],
      "name": "claimInsurance",
      "outputs": [],
      "stateMutability": "nonpayable",
      "type": "function"
    },
    {
      "inputs": [],
      "name": "claimUtils",
      "outputs": [
        {
          "internalType": "contract IClaimUtils",
          "name": "",
          "type": "address"
        }
      ],
      "stateMutability": "view",
      "type": "function"
    },
    {
      "inputs": [
        {
          "internalType": "uint256",
          "name": "",
          "type": "uint256"
        }
      ],
      "name": "claims",
      "outputs": [
        {
          "internalType": "uint256",
          "name": "arbitratorDisputeId",
          "type": "uint256"
        },
        {
          "internalType": "uint256",
          "name": "claimedAmount",
          "type": "uint256"
        },
        {
          "internalType": "uint256",
          "name": "timestamp",
          "type": "uint256"
        },
        {
          "internalType": "uint256",
          "name": "counterOfferAmount",
          "type": "uint256"
        },
        {
          "internalType": "address",
          "name": "claimant",
          "type": "address"
        },
        {
          "internalType": "address",
          "name": "beneficiary",
          "type": "address"
        },
        {
          "internalType": "enum ClaimManager.ClaimStatus",
          "name": "status",
          "type": "uint8"
        }
      ],
      "stateMutability": "view",
      "type": "function"
    },
    {
      "inputs": [
        {
          "internalType": "uint256",
          "name": "_claimId",
          "type": "uint256"
        },
        {
          "internalType": "uint256",
          "name": "_amount",
          "type": "uint256"
        },
        {
          "internalType": "bool",
          "name": "_toDispute",
          "type": "bool"
        },
        {
          "internalType": "string",
          "name": "_evidence",
          "type": "string"
        }
      ],
      "name": "counterOffer",
      "outputs": [],
      "stateMutability": "payable",
      "type": "function"
    },
    {
      "inputs": [],
      "name": "counterOfferPeriod",
      "outputs": [
        {
          "internalType": "uint256",
          "name": "",
          "type": "uint256"
        }
      ],
      "stateMutability": "view",
      "type": "function"
    },
    {
      "inputs": [
        {
          "internalType": "address",
          "name": "_claimant",
          "type": "address"
        },
        {
          "internalType": "address",
          "name": "_beneficiary",
          "type": "address"
        },
        {
          "internalType": "uint256",
          "name": "_coverage",
          "type": "uint256"
        },
        {
          "internalType": "uint256",
          "name": "_endTime",
          "type": "uint256"
        },
        {
          "internalType": "string",
          "name": "_documentIpfsCidV1",
          "type": "string"
        }
      ],
      "name": "createPolicy",
      "outputs": [
        {
          "internalType": "bytes32",
          "name": "policyHash",
          "type": "bytes32"
        }
      ],
      "stateMutability": "nonpayable",
      "type": "function"
    },
    {
      "inputs": [
        {
          "internalType": "uint256",
          "name": "",
          "type": "uint256"
        }
      ],
      "name": "disputeIdToClaimId",
      "outputs": [
        {
          "internalType": "uint256",
          "name": "",
          "type": "uint256"
        }
      ],
      "stateMutability": "view",
      "type": "function"
    },
    {
      "inputs": [],
      "name": "insurer",
      "outputs": [
        {
          "internalType": "address",
          "name": "",
          "type": "address"
        }
      ],
      "stateMutability": "view",
      "type": "function"
    },
    {
      "inputs": [
        {
          "internalType": "bytes32",
          "name": "",
          "type": "bytes32"
        }
      ],
      "name": "policyWithHashExists",
      "outputs": [
        {
          "internalType": "bool",
          "name": "",
          "type": "bool"
        }
      ],
      "stateMutability": "view",
      "type": "function"
    },
    {
      "inputs": [
        {
          "internalType": "uint256",
          "name": "_disputeId",
          "type": "uint256"
        },
        {
          "internalType": "uint256",
          "name": "_ruling",
          "type": "uint256"
        }
      ],
      "name": "rule",
      "outputs": [],
      "stateMutability": "nonpayable",
      "type": "function"
    },
    {
      "inputs": [
        {
          "internalType": "uint256",
          "name": "_claimId",
          "type": "uint256"
        },
        {
          "internalType": "string",
          "name": "_evidence",
          "type": "string"
        }
      ],
      "name": "submitEvidence",
      "outputs": [],
      "stateMutability": "nonpayable",
      "type": "function"
    }
  ],
  "bytecode": "0x6101006040523480156200001257600080fd5b506040516200279b3803806200279b83398101604081905262000035916200027a565b6001600160a01b0387811660805286811660a052600080546001600160a01b03191691871691909117905560c084905260e083905280516200007f906002906020840190620000c8565b5060007f61606860eb6c87306811e2695215385101daab53bd6ab4e9f9049aead9363c7d83604051620000b3919062000349565b60405180910390a250505050505050620003bb565b828054620000d6906200037e565b90600052602060002090601f016020900481019282620000fa576000855562000145565b82601f106200011557805160ff191683800117855562000145565b8280016001018555821562000145579182015b828111156200014557825182559160200191906001019062000128565b506200015392915062000157565b5090565b5b8082111562000153576000815560010162000158565b80516001600160a01b03811681146200018657600080fd5b919050565b634e487b7160e01b600052604160045260246000fd5b60005b83811015620001be578181015183820152602001620001a4565b83811115620001ce576000848401525b50505050565b60006001600160401b0380841115620001f157620001f16200018b565b604051601f8501601f19908116603f011681019082821181831017156200021c576200021c6200018b565b816040528093508581528686860111156200023657600080fd5b62000246866020830187620001a1565b5050509392505050565b600082601f8301126200026257600080fd5b6200027383835160208501620001d4565b9392505050565b600080600080600080600060e0888a0312156200029657600080fd5b620002a1886200016e565b9650620002b1602089016200016e565b9550620002c1604089016200016e565b606089015160808a015160a08b015192975090955093506001600160401b0380821115620002ee57600080fd5b818a0191508a601f8301126200030357600080fd5b620003148b835160208501620001d4565b935060c08a01519150808211156200032b57600080fd5b506200033a8a828b0162000250565b91505092959891949750929550565b60208152600082518060208401526200036a816040850160208701620001a1565b601f01601f19169190910160400192915050565b600181811c908216806200039357607f821691505b60208210811415620003b557634e487b7160e01b600052602260045260246000fd5b50919050565b60805160a05160c05160e05161230c6200048f600039600081816104a7015281816115070152611771015260008181610234015281816109cf01528181610b1801526111610152600081816102b801528181610582015281816106ef01528181610c5b01528181610d3501528181610e0201528181610ecc01528181610f830152818161107e0152818161132d015281816117f1015281816118c3015281816119220152611b800152600081816101e80152818161080e015281816108ea0152818161128601526115ec015261230c6000f3fe60806040526004361061016a5760003560e01c8063974e527a116100cb578063d58bcecb1161007f578063ed273fbf11610059578063ed273fbf14610475578063f3f480d914610495578063f6f54530146104c957600080fd5b8063d58bcecb14610422578063d5b3f1fe14610442578063dbc837c51461045557600080fd5b8063a888c2cd116100b0578063a888c2cd14610356578063b3e65eec146103d5578063beaf56a61461040257600080fd5b8063974e527a14610316578063a6a7f0eb1461033657600080fd5b806339367cdd116101225780637dbfc08d116101075780637dbfc08d146102da5780637e69b7b0146102ed5780638da4d3c91461030057600080fd5b806339367cdd146102865780636cc6cde1146102a657600080fd5b80630ff45710116101535780630ff45710146101d6578063213f73c414610222578063311a6c561461026457600080fd5b8063028ead111461016f5780630c7ac7b6146101b4575b600080fd5b34801561017b57600080fd5b5061019f61018a366004611d38565b60056020526000908152604090205460ff1681565b60405190151581526020015b60405180910390f35b3480156101c057600080fd5b506101c96104e9565b6040516101ab9190611d51565b3480156101e257600080fd5b5061020a7f000000000000000000000000000000000000000000000000000000000000000081565b6040516001600160a01b0390911681526020016101ab565b34801561022e57600080fd5b506102567f000000000000000000000000000000000000000000000000000000000000000081565b6040519081526020016101ab565b34801561027057600080fd5b5061028461027f366004611da6565b610577565b005b34801561029257600080fd5b506102846102a1366004611d38565b61094f565b3480156102b257600080fd5b5061020a7f000000000000000000000000000000000000000000000000000000000000000081565b6102846102e8366004611e11565b610aa3565b6102846102fb366004611d38565b610f40565b34801561030c57600080fd5b5061025660015481565b34801561032257600080fd5b50610284610331366004611d38565b6110ec565b34801561034257600080fd5b50610284610351366004611e80565b611320565b34801561036257600080fd5b506103c2610371366004611d38565b600360208190526000918252604090912080546001820154600283015493830154600484015460059094015492949193919290916001600160a01b039081169190811690600160a01b900460ff1687565b6040516101ab9796959493929190611ee2565b3480156103e157600080fd5b506102566103f0366004611d38565b60046020526000908152604090205481565b34801561040e57600080fd5b5061028461041d366004611f61565b611393565b34801561042e57600080fd5b5061028461043d366004611d38565b61141c565b610284610450366004611e80565b611686565b34801561046157600080fd5b5060005461020a906001600160a01b031681565b34801561048157600080fd5b50610284610490366004611f83565b61198a565b3480156104a157600080fd5b506102567f000000000000000000000000000000000000000000000000000000000000000081565b3480156104d557600080fd5b506102566104e4366004612020565b611c45565b600280546104f690612098565b80601f016020809104026020016040519081016040528092919081815260200182805461052290612098565b801561056f5780601f106105445761010080835404028352916020019161056f565b820191906000526020600020905b81548152906001019060200180831161055257829003601f168201915b505050505081565b336001600160a01b037f000000000000000000000000000000000000000000000000000000000000000016146105f45760405162461bcd60e51b815260206004820152601860248201527f4f6e6c792061726269747261746f722063616e2072756c65000000000000000060448201526064015b60405180910390fd5b6000828152600460209081526040808320548084526003928390529220906005820154600160a01b900460ff16600481111561063257610632611ecc565b1461067f5760405162461bcd60e51b815260206004820152601560248201527f436c61696d2063616e6e6f742062652072756c6564000000000000000000000060448201526064016105eb565b60038311156106d05760405162461bcd60e51b815260206004820152601560248201527f496e76616c69642072756c696e67206f7074696f6e000000000000000000000060448201526064016105eb565b60058101805460ff60a01b1916600160a21b17905560405183815284907f00000000000000000000000000000000000000000000000000000000000000006001600160a01b0316907f394027a5fa6e098a1191094d1719d6929b9abc535fcc0c8f448d6a4e756222769060200160405180910390a38215806107525750826001145b156107955760408051838152600060208201527f6672867a042c186f93065f233216054c059bfb83e2f948f602db370646ea570f910160405180910390a1610949565b82600214156108715760018101546040805184815260208101929092527f6672867a042c186f93065f233216054c059bfb83e2f948f602db370646ea570f910160405180910390a160058101546001820154604051632cacc0cb60e01b81526001600160a01b03928316600482015260248101919091527f000000000000000000000000000000000000000000000000000000000000000090911690632cacc0cb90604401600060405180830381600087803b15801561085457600080fd5b505af1158015610868573d6000803e3d6000fd5b50505050610949565b82600314156109495760038101546040805184815260208101929092527f6672867a042c186f93065f233216054c059bfb83e2f948f602db370646ea570f910160405180910390a160058101546003820154604051632cacc0cb60e01b81526001600160a01b03928316600482015260248101919091527f000000000000000000000000000000000000000000000000000000000000000090911690632cacc0cb90604401600060405180830381600087803b15801561093057600080fd5b505af1158015610944573d6000803e3d6000fd5b505050505b50505050565b600081815260036020526040902060016005820154600160a01b900460ff16600481111561097f5761097f611ecc565b146109cc5760405162461bcd60e51b815260206004820152600f60248201527f4d75737420626520636c61696d6564000000000000000000000000000000000060448201526064016105eb565b427f000000000000000000000000000000000000000000000000000000000000000082600201546109fd91906120e9565b10610a4a5760405162461bcd60e51b815260206004820152601760248201527f506572696f64206d75737420686176652070617373656400000000000000000060448201526064016105eb565b60058101805460ff60a01b1916600160a11b17905542600282015560408051838152600060208201527faa8fb07d06ec1d283b027c4f82731454a4321711611b89989fb111f8ceb2cd4d91015b60405180910390a15050565b6000546001600160a01b03163314610afd5760405162461bcd60e51b815260206004820152601e60248201527f4f6e6c7920696e73757265722063616e20636f756e746572206f66666572000060448201526064016105eb565b600085815260036020526040902060028101544290610b3d907f0000000000000000000000000000000000000000000000000000000000000000906120e9565b1015610b8b5760405162461bcd60e51b815260206004820152601c60248201527f4f7574206f662074696d6520746f20636f756e746572206f666665720000000060448201526064016105eb565b60016005820154600160a01b900460ff166004811115610bad57610bad611ecc565b14610bfa5760405162461bcd60e51b815260206004820152601f60248201527f436c61696d206d75737420626520696e20636c61696d6564207374617475730060448201526064016105eb565b8060010154851115610c4e5760405162461bcd60e51b815260206004820152601f60248201527f436f756e7465726f666665722063616e27742065786365656420636c61696d0060448201526064016105eb565b336001600160a01b0316867f00000000000000000000000000000000000000000000000000000000000000006001600160a01b03167fdccf2f8b2cc26eafcd61905cba744cff4b81d14740725f6376390dc6298a6a3c8686604051610cb492919061212a565b60405180910390a460408051878152602081018790527faa8fb07d06ec1d283b027c4f82731454a4321711611b89989fb111f8ceb2cd4d910160405180910390a1600381018590558315610f1c576040517ff7434ea90000000000000000000000000000000000000000000000000000000081526000906001600160a01b037f0000000000000000000000000000000000000000000000000000000000000000169063f7434ea990610d6b906002906004016121e6565b602060405180830381865afa158015610d88573d6000803e3d6000fd5b505050506040513d601f19601f82011682018060405250810190610dac91906121f9565b905080341015610dfe5760405162461bcd60e51b815260206004820152601a60248201527f4e6f7420656e6f75676820666f72206172626974726174696f6e00000000000060448201526064016105eb565b60007f00000000000000000000000000000000000000000000000000000000000000006001600160a01b031663c13517e134600360026040518463ffffffff1660e01b8152600401610e51929190612212565b60206040518083038185885af1158015610e6f573d6000803e3d6000fd5b50505050506040513d601f19601f82011682018060405250810190610e9491906121f9565b80845560058401805460ff60a01b1916600360a01b1790556040805160008152602081018b9052815192935083926001600160a01b037f000000000000000000000000000000000000000000000000000000000000000016927f74baab670a4015ab2f1b467c5252a96141a2573f2908e58a92081e80d3cfde3d928290030190a35050610f38565b42600282015560058101805460ff60a01b1916600160a11b1790555b505050505050565b600081815260036020526040808220805491517ff23f16e60000000000000000000000000000000000000000000000000000000081529092916001600160a01b037f0000000000000000000000000000000000000000000000000000000000000000169163f23f16e691610fb991600290600401612212565b602060405180830381865afa158015610fd6573d6000803e3d6000fd5b505050506040513d601f19601f82011682018060405250810190610ffa91906121f9565b90508034101561104c5760405162461bcd60e51b815260206004820152601960248201527f4e6f7420656e6f75676820746f2066756e642061707065616c0000000000000060448201526064016105eb565b81546040517f49912f880000000000000000000000000000000000000000000000000000000081526001600160a01b037f000000000000000000000000000000000000000000000000000000000000000016916349912f88916110b59190600290600401612212565b600060405180830381600087803b1580156110cf57600080fd5b505af11580156110e3573d6000803e3d6000fd5b50505050505050565b6000546001600160a01b031633146111465760405162461bcd60e51b815260206004820152601d60248201527f4f6e6c7920696e73757265722063616e2061636365707420636c61696d00000060448201526064016105eb565b600081815260036020526040902060028101544290611186907f0000000000000000000000000000000000000000000000000000000000000000906120e9565b10156111d45760405162461bcd60e51b815260206004820152601b60248201527f4f7574206f662074696d6520746f2061636365707420636c61696d000000000060448201526064016105eb565b60016005820154600160a01b900460ff1660048111156111f6576111f6611ecc565b146112435760405162461bcd60e51b815260206004820152601f60248201527f436c61696d206d75737420626520696e20636c61696d6564207374617475730060448201526064016105eb565b600581018054600160a21b60ff60a01b198216179091556001820154604051632cacc0cb60e01b81526001600160a01b03928316600482015260248101919091527f000000000000000000000000000000000000000000000000000000000000000090911690632cacc0cb90604401600060405180830381600087803b1580156112cc57600080fd5b505af11580156112e0573d6000803e3d6000fd5b50505060018201546040805185815260208101929092527f6672867a042c186f93065f233216054c059bfb83e2f948f602db370646ea570f925001610a97565b336001600160a01b0316837f00000000000000000000000000000000000000000000000000000000000000006001600160a01b03167fdccf2f8b2cc26eafcd61905cba744cff4b81d14740725f6376390dc6298a6a3c858560405161138692919061212a565b60405180910390a4505050565b6000546001600160a01b031633146113ed5760405162461bcd60e51b815260206004820152601f60248201527f4f6e6c7920696e73757265722063616e206368616e676520696e73757265720060448201526064016105eb565b6000805473ffffffffffffffffffffffffffffffffffffffff19166001600160a01b0392909216919091179055565b600081815260036020526040902060048101546001600160a01b031633146114955760405162461bcd60e51b815260206004820152602660248201527f4f6e6c7920636c61696d616e742063616e2061636365707420636f756e7465726044820152651037b33332b960d11b60648201526084016105eb565b60026005820154600160a01b900460ff1660048111156114b7576114b7611ecc565b146115045760405162461bcd60e51b815260206004820181905260248201527f4d75737420626520696e20636f756e7465724f6666657265642073746174757360448201526064016105eb565b427f0000000000000000000000000000000000000000000000000000000000000000826002015461153591906120e9565b10156115a95760405162461bcd60e51b815260206004820152602260248201527f4f7574206f662074696d6520746f2061636365707420636f756e7465724f666660448201527f657200000000000000000000000000000000000000000000000000000000000060648201526084016105eb565b600581018054600160a21b60ff60a01b198216179091556003820154604051632cacc0cb60e01b81526001600160a01b03928316600482015260248101919091527f000000000000000000000000000000000000000000000000000000000000000090911690632cacc0cb90604401600060405180830381600087803b15801561163257600080fd5b505af1158015611646573d6000803e3d6000fd5b50505060038201546040805185815260208101929092527f6672867a042c186f93065f233216054c059bfb83e2f948f602db370646ea570f925001610a97565b600083815260036020526040902060048101546001600160a01b031633146116ff5760405162461bcd60e51b815260206004820152602660248201527f4f6e6c7920636c61696d616e742063616e2061636365707420636f756e7465726044820152651037b33332b960d11b60648201526084016105eb565b60026005820154600160a01b900460ff16600481111561172157611721611ecc565b1461176e5760405162461bcd60e51b815260206004820181905260248201527f4d75737420626520696e20636f756e7465724f6666657265642073746174757360448201526064016105eb565b427f0000000000000000000000000000000000000000000000000000000000000000826002015461179f91906120e9565b10156117ed5760405162461bcd60e51b815260206004820152601860248201527f4f7574206f662074696d6520746f206368616c6c656e6765000000000000000060448201526064016105eb565b60007f00000000000000000000000000000000000000000000000000000000000000006001600160a01b031663c13517e134600360026040518463ffffffff1660e01b8152600401611840929190612212565b60206040518083038185885af115801561185e573d6000803e3d6000fd5b50505050506040513d601f19601f8201168201806040525081019061188391906121f9565b600081815260046020908152604080832089905560058601805460ff60a01b1916600360a01b1790558386558051928352908201889052805192935083927f00000000000000000000000000000000000000000000000000000000000000006001600160a01b0316927f74baab670a4015ab2f1b467c5252a96141a2573f2908e58a92081e80d3cfde3d92908290030190a3336001600160a01b0316857f00000000000000000000000000000000000000000000000000000000000000006001600160a01b03167fdccf2f8b2cc26eafcd61905cba744cff4b81d14740725f6376390dc6298a6a3c878760405161197b92919061212a565b60405180910390a45050505050565b60003389898989896040516020016119a79695949392919061222b565b60408051601f1981840301815291815281516020928301206000818152600590935291205490915060ff16611a1e5760405162461bcd60e51b815260206004820152601560248201527f506f6c69637920646f6573206e6f74206578697374000000000000000000000060448201526064016105eb565b86421115611a6e5760405162461bcd60e51b815260206004820152601260248201527f506f6c696379206861732065787069726564000000000000000000000000000060448201526064016105eb565b87841115611ae45760405162461bcd60e51b815260206004820152602160248201527f436c61696d20616d6f756e74206c6172676572207468616e20636f766572616760448201527f650000000000000000000000000000000000000000000000000000000000000060648201526084016105eb565b6001805460009081526003602052604090206004810180543373ffffffffffffffffffffffffffffffffffffffff19918216179091556005820180549182166001600160a01b038e16908117825583850189905542600285015592939290917fffffffffffffffffffffff0000000000000000000000000000000000000000001617600160a01b830217905550336001600160a01b03166001547f00000000000000000000000000000000000000000000000000000000000000006001600160a01b03167fdccf2f8b2cc26eafcd61905cba744cff4b81d14740725f6376390dc6298a6a3c8787604051611bd992919061212a565b60405180910390a4600154604080519182526020820187905281018390527fff22fd688fbba3fb16ce59b8c696cf8c03409bd2619bf2d81e7f4a88d17267859060600160405180910390a160018054906000611c3483612276565b919050555050505050505050505050565b600080546001600160a01b03163314611ca05760405162461bcd60e51b815260206004820152601e60248201527f4f6e6c7920696e73757265722063616e2063726561746520706f6c696379000060448201526064016105eb565b868686868686604051602001611cbb9695949392919061222b565b60408051601f19818403018152828252805160209182012060008181526005909252919020805460ff19166001179055915081907ffe8d3f41307ac5d34151f05b0785e3f95df2e7aa2b4dc6217278c3e9138649a090611d26908a908a908a908a908a908a90612291565b60405180910390a29695505050505050565b600060208284031215611d4a57600080fd5b5035919050565b600060208083528351808285015260005b81811015611d7e57858101830151858201604001528201611d62565b81811115611d90576000604083870101525b50601f01601f1916929092016040019392505050565b60008060408385031215611db957600080fd5b50508035926020909101359150565b60008083601f840112611dda57600080fd5b50813567ffffffffffffffff811115611df257600080fd5b602083019150836020828501011115611e0a57600080fd5b9250929050565b600080600080600060808688031215611e2957600080fd5b853594506020860135935060408601358015158114611e4757600080fd5b9250606086013567ffffffffffffffff811115611e6357600080fd5b611e6f88828901611dc8565b969995985093965092949392505050565b600080600060408486031215611e9557600080fd5b83359250602084013567ffffffffffffffff811115611eb357600080fd5b611ebf86828701611dc8565b9497909650939450505050565b634e487b7160e01b600052602160045260246000fd5b8781526020810187905260408101869052606081018590526001600160a01b038481166080830152831660a082015260e0810160058310611f3357634e487b7160e01b600052602160045260246000fd5b8260c083015298975050505050505050565b80356001600160a01b0381168114611f5c57600080fd5b919050565b600060208284031215611f7357600080fd5b611f7c82611f45565b9392505050565b60008060008060008060008060c0898b031215611f9f57600080fd5b611fa889611f45565b97506020890135965060408901359550606089013567ffffffffffffffff80821115611fd357600080fd5b611fdf8c838d01611dc8565b909750955060808b0135945060a08b0135915080821115611fff57600080fd5b5061200c8b828c01611dc8565b999c989b5096995094979396929594505050565b60008060008060008060a0878903121561203957600080fd5b61204287611f45565b955061205060208801611f45565b94506040870135935060608701359250608087013567ffffffffffffffff81111561207a57600080fd5b61208689828a01611dc8565b979a9699509497509295939492505050565b600181811c908216806120ac57607f821691505b602082108114156120cd57634e487b7160e01b600052602260045260246000fd5b50919050565b634e487b7160e01b600052601160045260246000fd5b600082198211156120fc576120fc6120d3565b500190565b81835281816020850137506000828201602090810191909152601f909101601f19169091010190565b60208152600061213e602083018486612101565b949350505050565b8054600090600181811c908083168061216057607f831692505b602080841082141561218257634e487b7160e01b600052602260045260246000fd5b8388526020880182801561219d57600181146121ae576121d9565b60ff198716825282820197506121d9565b60008981526020902060005b878110156121d3578154848201529086019084016121ba565b83019850505b5050505050505092915050565b602081526000611f7c6020830184612146565b60006020828403121561220b57600080fd5b5051919050565b82815260406020820152600061213e6040830184612146565b60006bffffffffffffffffffffffff19808960601b168352808860601b1660148401525085602883015284604883015282846068840137506000910160680190815295945050505050565b600060001982141561228a5761228a6120d3565b5060010190565b60006001600160a01b03808916835280881660208401525085604083015284606083015260a060808301526122ca60a083018486612101565b9897505050505050505056fea2646970667358221220ec7ae7fdaee23b55c77ad3ebca2c4357f4d2a71e3768733f9319d5003d95750964736f6c634300080c0033",
  "linkReferences": {},
  "deployedLinkReferences": {}
}